{
  "_format": "hh-sol-artifact-1",
  "contractName": "PedigreePal",
  "sourceName": "contracts/PedigreePal.sol",
  "abi": [
    {
      "inputs": [],
      "stateMutability": "nonpayable",
      "type": "constructor"
    },
    {
      "anonymous": false,
      "inputs": [
        {
          "indexed": false,
          "internalType": "string",
          "name": "_name",
          "type": "string"
        },
        {
          "indexed": false,
          "internalType": "string",
          "name": "_breed",
          "type": "string"
        },
        {
          "indexed": false,
          "internalType": "string",
          "name": "_sex",
          "type": "string"
        },
        {
          "indexed": false,
          "internalType": "uint256",
          "name": "_age",
          "type": "uint256"
        },
        {
          "indexed": false,
          "internalType": "uint256",
          "name": "_mother",
          "type": "uint256"
        },
        {
          "indexed": false,
          "internalType": "uint256",
          "name": "_father",
          "type": "uint256"
        }
      ],
      "name": "Register",
      "type": "event"
    },
    {
      "inputs": [],
      "name": "dogId",
      "outputs": [
        {
          "internalType": "uint256",
          "name": "",
          "type": "uint256"
        }
      ],
      "stateMutability": "view",
      "type": "function"
    },
    {
      "inputs": [
        {
          "internalType": "uint256",
          "name": "",
          "type": "uint256"
        }
      ],
      "name": "dogs",
      "outputs": [
        {
          "internalType": "uint256",
          "name": "id",
          "type": "uint256"
        },
        {
          "internalType": "string",
          "name": "name",
          "type": "string"
        },
        {
          "internalType": "uint256",
          "name": "age",
          "type": "uint256"
        },
        {
          "internalType": "string",
          "name": "breed",
          "type": "string"
        },
        {
          "internalType": "string",
          "name": "sex",
          "type": "string"
        },
        {
          "internalType": "uint256",
          "name": "mother",
          "type": "uint256"
        },
        {
          "internalType": "uint256",
          "name": "father",
          "type": "uint256"
        },
        {
          "internalType": "address",
          "name": "owner",
          "type": "address"
        }
      ],
      "stateMutability": "view",
      "type": "function"
    },
    {
      "inputs": [],
      "name": "owner",
      "outputs": [
        {
          "internalType": "address",
          "name": "",
          "type": "address"
        }
      ],
      "stateMutability": "view",
      "type": "function"
    },
    {
      "inputs": [
        {
          "internalType": "string",
          "name": "_name",
          "type": "string"
        },
        {
          "internalType": "string",
          "name": "_breed",
          "type": "string"
        },
        {
          "internalType": "string",
          "name": "_sex",
          "type": "string"
        },
        {
          "internalType": "uint256",
          "name": "_age",
          "type": "uint256"
        },
        {
          "internalType": "uint256",
          "name": "_mother",
          "type": "uint256"
        },
        {
          "internalType": "uint256",
          "name": "_father",
          "type": "uint256"
        }
      ],
      "name": "registerDog",
      "outputs": [],
      "stateMutability": "nonpayable",
      "type": "function"
    },
    {
      "inputs": [
        {
          "internalType": "uint256",
          "name": "_id",
          "type": "uint256"
        }
      ],
      "name": "retrieveDog",
      "outputs": [
        {
          "components": [
            {
              "internalType": "uint256",
              "name": "id",
              "type": "uint256"
            },
            {
              "internalType": "string",
              "name": "name",
              "type": "string"
            },
            {
              "internalType": "uint256",
              "name": "age",
              "type": "uint256"
            },
            {
              "internalType": "string",
              "name": "breed",
              "type": "string"
            },
            {
              "internalType": "string",
              "name": "sex",
              "type": "string"
            },
            {
              "internalType": "uint256",
              "name": "mother",
              "type": "uint256"
            },
            {
              "internalType": "uint256",
              "name": "father",
              "type": "uint256"
            },
            {
              "internalType": "address",
              "name": "owner",
              "type": "address"
            }
          ],
          "internalType": "struct PedigreePal.Dog",
          "name": "",
          "type": "tuple"
        }
      ],
      "stateMutability": "view",
      "type": "function"
    }
  ],
  "bytecode": "0x6080604052348015600f57600080fd5b50336000806101000a81548173ffffffffffffffffffffffffffffffffffffffff021916908373ffffffffffffffffffffffffffffffffffffffff1602179055506112268061005f6000396000f3fe608060405234801561001057600080fd5b50600436106100575760003560e01c806304d45c4d1461005c5780630570bd281461008c57806338272356146100aa5780637f1f71cc146100e15780638da5cb5b146100fd575b600080fd5b61007660048036038101906100719190610856565b61011b565b6040516100839190610a21565b60405180910390f35b61009461037d565b6040516100a19190610a52565b60405180910390f35b6100c460048036038101906100bf9190610856565b610383565b6040516100d8989796959493929190610ac6565b60405180910390f35b6100fb60048036038101906100f69190610cee565b610583565b005b61010561078d565b6040516101129190610dd9565b60405180910390f35b6101236107b1565b60016000838152602001908152602001600020604051806101000160405290816000820154815260200160018201805461015c90610e23565b80601f016020809104026020016040519081016040528092919081815260200182805461018890610e23565b80156101d55780601f106101aa576101008083540402835291602001916101d5565b820191906000526020600020905b8154815290600101906020018083116101b857829003601f168201915b50505050508152602001600282015481526020016003820180546101f890610e23565b80601f016020809104026020016040519081016040528092919081815260200182805461022490610e23565b80156102715780601f1061024657610100808354040283529160200191610271565b820191906000526020600020905b81548152906001019060200180831161025457829003601f168201915b5050505050815260200160048201805461028a90610e23565b80601f01602080910402602001604051908101604052809291908181526020018280546102b690610e23565b80156103035780601f106102d857610100808354040283529160200191610303565b820191906000526020600020905b8154815290600101906020018083116102e657829003601f168201915b5050505050815260200160058201548152602001600682015481526020016007820160009054906101000a900473ffffffffffffffffffffffffffffffffffffffff1673ffffffffffffffffffffffffffffffffffffffff1673ffffffffffffffffffffffffffffffffffffffff16815250509050919050565b60025481565b60016020528060005260406000206000915090508060000154908060010180546103ac90610e23565b80601f01602080910402602001604051908101604052809291908181526020018280546103d890610e23565b80156104255780601f106103fa57610100808354040283529160200191610425565b820191906000526020600020905b81548152906001019060200180831161040857829003601f168201915b50505050509080600201549080600301805461044090610e23565b80601f016020809104026020016040519081016040528092919081815260200182805461046c90610e23565b80156104b95780601f1061048e576101008083540402835291602001916104b9565b820191906000526020600020905b81548152906001019060200180831161049c57829003601f168201915b5050505050908060040180546104ce90610e23565b80601f01602080910402602001604051908101604052809291908181526020018280546104fa90610e23565b80156105475780601f1061051c57610100808354040283529160200191610547565b820191906000526020600020905b81548152906001019060200180831161052a57829003601f168201915b5050505050908060050154908060060154908060070160009054906101000a900473ffffffffffffffffffffffffffffffffffffffff16905088565b604051806101000160405280600254815260200189815260200184815260200188888080601f016020809104026020016040519081016040528093929190818152602001838380828437600081840152601f19601f82011690508083019250505050505050815260200186868080601f016020809104026020016040519081016040528093929190818152602001838380828437600081840152601f19601f8201169050808301925050505050505081526020018381526020018281526020013373ffffffffffffffffffffffffffffffffffffffff168152506001600060025481526020019081526020016000206000820151816000015560208201518160010190816106919190611000565b506040820151816002015560608201518160030190816106b19190611000565b5060808201518160040190816106c79190611000565b5060a0820151816005015560c0820151816006015560e08201518160070160006101000a81548173ffffffffffffffffffffffffffffffffffffffff021916908373ffffffffffffffffffffffffffffffffffffffff1602179055509050506002600081548092919061073990611101565b91905055507f0571b67fdc690a0f8312249994843fbe29b6bfc0382f0f5e77314a0778862abc888888888888888860405161077b989796959493929190611176565b60405180910390a15050505050505050565b60008054906101000a900473ffffffffffffffffffffffffffffffffffffffff1681565b60405180610100016040528060008152602001606081526020016000815260200160608152602001606081526020016000815260200160008152602001600073ffffffffffffffffffffffffffffffffffffffff1681525090565b6000604051905090565b600080fd5b600080fd5b6000819050919050565b61083381610820565b811461083e57600080fd5b50565b6000813590506108508161082a565b92915050565b60006020828403121561086c5761086b610816565b5b600061087a84828501610841565b91505092915050565b61088c81610820565b82525050565b600081519050919050565b600082825260208201905092915050565b60005b838110156108cc5780820151818401526020810190506108b1565b60008484015250505050565b6000601f19601f8301169050919050565b60006108f482610892565b6108fe818561089d565b935061090e8185602086016108ae565b610917816108d8565b840191505092915050565b600073ffffffffffffffffffffffffffffffffffffffff82169050919050565b600061094d82610922565b9050919050565b61095d81610942565b82525050565b60006101008301600083015161097c6000860182610883565b506020830151848203602086015261099482826108e9565b91505060408301516109a96040860182610883565b50606083015184820360608601526109c182826108e9565b915050608083015184820360808601526109db82826108e9565b91505060a08301516109f060a0860182610883565b5060c0830151610a0360c0860182610883565b5060e0830151610a1660e0860182610954565b508091505092915050565b60006020820190508181036000830152610a3b8184610963565b905092915050565b610a4c81610820565b82525050565b6000602082019050610a676000830184610a43565b92915050565b600082825260208201905092915050565b6000610a8982610892565b610a938185610a6d565b9350610aa38185602086016108ae565b610aac816108d8565b840191505092915050565b610ac081610942565b82525050565b600061010082019050610adc600083018b610a43565b8181036020830152610aee818a610a7e565b9050610afd6040830189610a43565b8181036060830152610b0f8188610a7e565b90508181036080830152610b238187610a7e565b9050610b3260a0830186610a43565b610b3f60c0830185610a43565b610b4c60e0830184610ab7565b9998505050505050505050565b600080fd5b600080fd5b7f4e487b7100000000000000000000000000000000000000000000000000000000600052604160045260246000fd5b610b9b826108d8565b810181811067ffffffffffffffff82111715610bba57610bb9610b63565b5b80604052505050565b6000610bcd61080c565b9050610bd98282610b92565b919050565b600067ffffffffffffffff821115610bf957610bf8610b63565b5b610c02826108d8565b9050602081019050919050565b82818337600083830152505050565b6000610c31610c2c84610bde565b610bc3565b905082815260208101848484011115610c4d57610c4c610b5e565b5b610c58848285610c0f565b509392505050565b600082601f830112610c7557610c74610b59565b5b8135610c85848260208601610c1e565b91505092915050565b600080fd5b600080fd5b60008083601f840112610cae57610cad610b59565b5b8235905067ffffffffffffffff811115610ccb57610cca610c8e565b5b602083019150836001820283011115610ce757610ce6610c93565b5b9250929050565b60008060008060008060008060c0898b031215610d0e57610d0d610816565b5b600089013567ffffffffffffffff811115610d2c57610d2b61081b565b5b610d388b828c01610c60565b985050602089013567ffffffffffffffff811115610d5957610d5861081b565b5b610d658b828c01610c98565b9750975050604089013567ffffffffffffffff811115610d8857610d8761081b565b5b610d948b828c01610c98565b95509550506060610da78b828c01610841565b9350506080610db88b828c01610841565b92505060a0610dc98b828c01610841565b9150509295985092959890939650565b6000602082019050610dee6000830184610ab7565b92915050565b7f4e487b7100000000000000000000000000000000000000000000000000000000600052602260045260246000fd5b60006002820490506001821680610e3b57607f821691505b602082108103610e4e57610e4d610df4565b5b50919050565b60008190508160005260206000209050919050565b60006020601f8301049050919050565b600082821b905092915050565b600060088302610eb67fffffffffffffffffffffffffffffffffffffffffffffffffffffffffffffffff82610e79565b610ec08683610e79565b95508019841693508086168417925050509392505050565b6000819050919050565b6000610efd610ef8610ef384610820565b610ed8565b610820565b9050919050565b6000819050919050565b610f1783610ee2565b610f2b610f2382610f04565b848454610e86565b825550505050565b600090565b610f40610f33565b610f4b818484610f0e565b505050565b5b81811015610f6f57610f64600082610f38565b600181019050610f51565b5050565b601f821115610fb457610f8581610e54565b610f8e84610e69565b81016020851015610f9d578190505b610fb1610fa985610e69565b830182610f50565b50505b505050565b600082821c905092915050565b6000610fd760001984600802610fb9565b1980831691505092915050565b6000610ff08383610fc6565b9150826002028217905092915050565b61100982610892565b67ffffffffffffffff81111561102257611021610b63565b5b61102c8254610e23565b611037828285610f73565b600060209050601f83116001811461106a5760008415611058578287015190505b6110628582610fe4565b8655506110ca565b601f19841661107886610e54565b60005b828110156110a05784890151825560018201915060208501945060208101905061107b565b868310156110bd57848901516110b9601f891682610fc6565b8355505b6001600288020188555050505b505050505050565b7f4e487b7100000000000000000000000000000000000000000000000000000000600052601160045260246000fd5b600061110c82610820565b91507fffffffffffffffffffffffffffffffffffffffffffffffffffffffffffffffff820361113e5761113d6110d2565b5b600182019050919050565b60006111558385610a6d565b9350611162838584610c0f565b61116b836108d8565b840190509392505050565b600060c0820190508181036000830152611190818b610a7e565b905081810360208301526111a581898b611149565b905081810360408301526111ba818789611149565b90506111c96060830186610a43565b6111d66080830185610a43565b6111e360a0830184610a43565b999850505050505050505056fea2646970667358221220bf090997b85e0bad740309399fdfac4081e202f7b19e69f52011bea3ebd650ca64736f6c634300081c0033",
  "linkReferences": {},
  "deployedLinkReferences": {}
}